:020000040800F2
:10000000005000201D0900086D0900086D09000856
:100010006D0900086D0900086D0900080000000066
:100020000000000000000000000000006D09000852
:100030006D090008000000006D0900086D09000846
:100040006D0900086D0900086D0900086D090008B8
:100050006D0900086D0900086D0900086D090008A8
:100060006D0900086D0900086D0900086D09000898
:100070006D0900086D0900086D0900086D09000888
:100080006D0900086D0900086D0900086D09000878
:100090006D0900086D0900086D0900086D09000868
:1000A0006D0900086D0900086D0900086D09000858
:1000B0006D0900086D0900086D0900086D09000848
:1000C0006D0900086D0900086D0900086D09000838
:1000D0006D0900086D0900086D0900086D09000828
:1000E0006D0900086D090008000000006D09000896
:1000F0006D0900086D0900086D0900086D09000808
:100100006D0900086D0900086D0900086D090008F7
:100110006D0900086D0900086D0900086D090008E7
:100120006D0900086D0900086D0900086D090008D7
:1001300010B5054C237833B9044B13B10448AFF321
:1001400000800123237010BD640000200000000027
:10015000B813000808B5034B1BB103490348AFF3BC
:10016000008008BD0000000068000020B8130008EF
:1001700080B483B000AF234B3B603B6803221A611D
:100180003B6803225A613B681F4A9A613B681F4AD9
:10019000DA613B684FF480621A623B6800229A621F
:1001A0003B6800225A623B680022DA623B68164ACA
:1001B0001A663B68164A5A663B6810229A663B6884
:1001C00000221A673B680022DA663B6800225A6701
:1001D00000237B600CE07B68C3F10F030D4AD15C08
:1001E0003A687B6813440A461A707B6801337B6067
:1001F0007B680F2BEFD900BF00BF0C37BD4680BC1A
:10020000704700BF80000020D013000828010020A4
:1002100028050020E813000880B58AB000AFF86018
:10022000B9607A6000233B62FB68DB68FB61FB68B6
:100230001B69BB61BA69FB699A4205D9BA69FB6956
:10024000D31A013B7B6207E0FB689A68B969FB69D6
:10025000CB1A1344013B7B62FB689A68FB69D31A93
:100260007A6A934228BF13467B627A6A7B6893421C
:1002700028BF13467B62FB685A68FB6913447B61A5
:100280007A6AB968786900F09DFB3A6A7B6A134420
:100290003B62BA687B6A1344BB607A687B6AD31A94
:1002A0007B60FA697B6A1344FB61FB689B68FA69AF
:1002B0009A4201D10023FB61FB68FA69DA607B682E
:1002C000002BB4D13B6A18462837BD4680BD80B5A7
:1002D00088B000AFF860B9607A60FB68DB68FB61EA
:1002E000FB689A68FB69D31ABB61BA697B689A425A
:1002F0000FD9FB685A68FB6913443B617A68B96897
:10030000386900F05FFBFA697B681A44FB68DA60C1
:100310001DE0BB697B61FB685A68FB6913443B6164
:100320007A69B968386900F04DFB7A68BB69D31AFD
:100330007B61FB685B683B61BA68BB6913447A699F
:100340001946386900F03EFBFB687A69DA6000BF45
:100350002037BD4680BD80B487B000AF78607B6831
:100360001B693B617B68DB68FB603A69FB689A420A
:1003700008D87B689A68FB68D21A3B691344013B32
:100380007B6104E03A69FB68D31A013B7B617B69BE
:1003900018461C37BD4680BC7047000080B588B049
:1003A00000AFF860B9607A60BB68BB61FB685A1C3B
:1003B00013465B001344DB001F4A13447B617B69D7
:1003C0005B69022B29D0022B2ED8002B02D0012BE7
:1003D00013D029E07869FFF7BEFF38613A697B687E
:1003E0009A4202D20023FB6121E07B68FB617A68BC
:1003F000B9697869FFF76BFF19E07869FFF7ABFF20
:1004000038617A683B69934228BF1346FB61FA69F9
:10041000B9697869FFF75BFF09E07A68B9697869BB
:10042000FFF7FAFEF86102E00023FB6100BFFB6901
:1004300018462037BD4680BD8000002080B588B0BA
:1004400000AFF860B9607A600E4BFB61FB691B7806
:10045000DBB2002B01D1FFF78BFEEFF311834FF0DE
:10046000200181F31188BB617A68B968F868FFF7E9
:1004700095FF7861BB6983F311887B691846203743
:10048000BD4680BD8000002080B584B000AFF8601C
:10049000B9607A603B603A6879680020FFF7CEFF68
:1004A0003B6818461037BD4680BD80B485B000AFAC
:1004B00078600023FB607B689B799B00DAB27B68E5
:1004C0005B791344FB727B681B79072B1ED8FA7A81
:1004D0007B681B799B0002FA03F3FB607B681B6857
:1004E0001A687B681B799B000F2101FA03F3DB4339
:1004F00019467B681B680A401A607B681B6819688C
:100500007B681B68FA680A431A601FE0FA7A7B6806
:100510001B79083B9B0002FA03F3FB607B681B68B6
:100520005A687B681B79083B9B000F2101FA03F393
:10053000DB4319467B681B680A405A607B681B686E
:1005400059687B681B68FA680A435A600023FB609D
:1005500000BF1437BD4680BC704780B483B000AF85
:1005600078600B46FB701346BB70BB78002B09D03C
:100570007B68DB68FA78012101FA02F21A437B6892
:10058000DA6009E07B68DB68FA78012101FA02F29F
:10059000D2431A407B68DA6000BF0C37BD4680BC8E
:1005A000704780B485B000AF78600B46FB707B6805
:1005B0009A68FB7822FA03F39BB203F00103FB81F4
:1005C000FB8918461437BD4680BC704780B483B0A1
:1005D00000AF78600B46FB70FB78002B4CD07B683B
:1005E0004E4A934206D14E4B9B694D4A43F0040359
:1005F00093618DE07B684B4A934206D1484B9B69DF
:10060000474A43F00803936182E07B68464A93427D
:1006100006D1434B9B69424A43F01003936177E054
:100620007B68424A934206D13D4B9B693C4A43F06A
:10063000200393616CE07B683D4A934206D1384BBE
:100640009B69374A43F04003936161E07B68394A14
:10065000934206D1324B9B69314A43F08003936148
:1006600056E07B68344A934252D12D4B9B692C4A09
:1006700043F4807393614BE07B68284A934206D130
:10068000274B9B69264A23F00403936140E07B6873
:10069000244A934206D1224B9B69214A23F0080346
:1006A000936135E07B68204A934206D11C4B9B69DD
:1006B0001B4A23F0100393612AE07B681B4A934294
:1006C00006D1174B9B69164A23F0200393611FE064
:1006D0007B68174A934206D1114B9B69104A23F05D
:1006E0004003936114E07B68124A934206D10C4B9D
:1006F0009B690B4A23F08003936109E07B680E4AF3
:10070000934205D1064B9B69054A23F4807393619C
:1007100000BF0C37BD4680BC704700BF00080140D9
:1007200000100240000C0140001001400014014084
:1007300000180140001C01400020014080B485B039
:1007400000AF78600023FB6002E0FB680133FB60D0
:100750007B684FF4FA7202FB03F3FA689A42F4D30F
:1007600000BF00BF1437BD4680BC704780B586B05F
:1007700000AF01212448FFF729FF01212348FFF79B
:1007800025FF224BFB600D233B7401237B74012367
:10079000BB7407F10C031846FFF787FE1A4B7B600A
:1007A0000A233B7200237B720123BB723B1D184658
:1007B000FFF77BFE0023FB75154800F087F90A213F
:1007C0001148FFF7EEFE0346002B14D10A20FFF775
:1007D000B5FF09E0FB7D002B04D100220D210B4861
:1007E000FFF7BBFE0123FB750A210748FFF7D9FE7F
:1007F0000346002BEED001220D210448FFF7ADFE89
:100800000023FB75D8E700BF000C01400010014039
:10081000DC13000880B586B000AFF860B9607A607C
:1008200000237B610AE0AFF300800146BB685A1CDD
:10083000BA60CAB21A707B6901337B617A697B68DE
:100840009A42F0DB7B6818461837BD4680BD80B4FD
:1008500083B000AF78604FF0FF3318460C37BD46C9
:1008600080BC704780B483B000AF786039603B686B
:100870004FF400525A60002318460C37BD4680BC26
:10088000704780B483B000AF7860012318460C37FE
:10089000BD4680BC704780B485B000AFF860B960D9
:1008A0007A60002318461437BD4680BC70470000AC
:1008B00080B586B000AF7860144A154BD31A7B61BF
:1008C0007B693B61134B1B68002B02D1114B124A11
:1008D0001A60104B1A687B6813443A699A4207D22F
:1008E00000F046F803460C221A604FF0FF3309E08F
:1008F000084B1B68FB60074B1A687B681344054A6A
:100900001360FB6818461837BD4680BD00500020B4
:100910000004000038050020500500200D488546E1
:10092000AFF300800C480D490D4A002302E0D45873
:10093000C4500433C4188C42F9D30A4A0A4C002329
:1009400001E013600432A242FBD300F017F8FFF776
:100950000DFFFEE700500020000000206400002092
:1009600068140008640000204C050020FEE7000029
:10097000014B1868704700BF0000002070B50026CA
:100980000C4D0D4C641BA410A64209D100F014FDBF
:1009900000260A4D0A4C641BA410A64205D170BD66
:1009A00055F8043B98470136EEE755F8043B984765
:1009B0000136F2E7601400086014000860140008B3
:1009C000641400080A44914200F1FF3300D17047DB
:1009D00010B511F8014B914203F8014FF9D110BD48
:1009E00003460244934200D1704703F8011BF9E724
:1009F00070B50E46054618B183690BB900F044FA8C
:100A0000AB69AC6813B9284600F03EFA2C4B9C4207
:100A100020D16C68636EDB0705D4A389980502D4E6
:100A2000A06D00F0CFFAA38919071DD52369DBB1AA
:100A3000013EA36816F8011F013BA36039BB002BE0
:100A400038DA22460A21284600F048F8013011D051
:100A50000A2511E01B4B9C4201D1AC68DAE71A4B26
:100A60009C4208BFEC68D5E72146284600F088F88C
:100A70000028DDD04FF0FF35636EDA0705D4A38977
:100A80009B0502D4A06D00F09EFA284670BD002B95
:100A900004DAA2699A4206DC0A2904D023685A1CA7
:100AA00022601970C5E72246284600F017F8013089
:100AB000BFD1DFE70A2523685A1C22601D70DBE7DF
:100AC000201400084014000800140008024B0146DE
:100AD0001868FFF78DBF00BF00000020F8B50E4674
:100AE0001446054618B183690BB900F0CDF9214BC6
:100AF0009C422BD16C68A369A360A3891A072FD5E8
:100B000023696BB323692068F6B2C01A636937465C
:100B1000834204DC2146284600F022F930BBA3685A
:100B20000130013BA36023685A1C22601E70636978
:100B3000834204D0A389DB0706D50A2E04D12146BF
:100B4000284600F00DF988B93846F8BD0A4B9C429A
:100B500001D1AC68CFE7094B9C4208BFEC68CAE7FB
:100B60002146284600F00CF80028CBD04FF0FF3784
:100B7000EAE700BF20140008401400080014000831
:100B8000324B70B51D6806460C4625B1AB6913B9EA
:100B9000284600F079F92E4B9C420FD16C68A3894E
:100BA000B4F90C2019072CD4DD0611D409233360C5
:100BB00042F040034FF0FF30A3813EE0254B9C42C2
:100BC00001D1AC68EBE7244B9C4208BFEC68E6E738
:100BD000580712D5616B41B104F14403994202D028
:100BE000304600F057FA00236363A38923F02403FF
:100BF000A3810023636023692360A38943F0080372
:100C0000A38123694BB9A38903F42073B3F5007F53
:100C100003D02146304600F0FDF9A089B4F90C203C
:100C200010F001030AD00023A36063695B42A36153
:100C3000236943B910F08000BAD170BD810758BF55
:100C40006369A360F4E70020F7E700BF000000201D
:100C50002014000840140008001400088A89F8B520
:100C6000054610070C4657D44B68002B04DC0B6C70
:100C7000002B01DC0020F8BDE66A002EFAD000232C
:100C800012F480522F682B6032D0606DA3895A070E
:100C900005D56368C01A636B0BB1236CC01A0023BF
:100CA0000246E66A2846216AB047431CA38906D15A
:100CB00029681D292CD8294ACA40D60728D50022E0
:100CC00062602269D904226004D5421C01D12B68DC
:100CD00003B96065616B2F600029CBD004F1440338
:100CE000994202D0284600F0D5F900206063C2E79F
:100CF000216A01232846B047411CC7D12B68002B2D
:100D0000C4D01D2B01D0162B01D12F60B2E7A389CF
:100D100043F04003A381AEE70F69002FAAD09307E9
:100D200018BF00230E6808BF4B69F61B0F608B606D
:100D3000002E9FDD33463A462846216AD4F828C063
:100D4000E047002806DCA3894FF0FF3043F0400362
:100D5000A38190E70744361AEAE700BF010040206C
:100D600038B50B6905460C4613B90025284638BD31
:100D700018B183690BB900F087F8144B9C421BD162
:100D80006C68B4F90C30002BEFD0626ED00704D43D
:100D9000990502D4A06D00F015F928462146FFF709
:100DA0005DFF636E0546DA07E0D4A3899B05DDD4B9
:100DB000A06D00F008F9D9E7054B9C4201D1AC6861
:100DC000DFE7044B9C4208BFEC68DAE72014000818
:100DD0004014000800140008002310B50446C0E9C0
:100DE0000033C0E90433836081814366C28183613B
:100DF000194608225C30FFF7F3FD054B246263625D
:100E0000044BA362044BE362044B236310BD00BF99
:100E10006D1200088F120008C7120008EB120008BC
:100E2000014900F0AFB800BF610D0008682270B53D
:100E30004D1E55430E4605F1740100F093F904462A
:100E400040B10021C0E900160C30A06005F1680235
:100E5000FFF7C6FD204670BD014800F0B3B800BFE3
:100E60003D050020014800F0AEB800BF3D05002060
:100E7000014800F0A7B800BF3E050020014800F07F
:100E8000A2B800BF3E05002010B50446FFF7F0FFF2
:100E9000A3691BB1BDE81040FFF7F0BFC4E91233EE
:100EA0002365134B134A1B68A262A34208BF0123A8
:100EB000204608BFA36100F01FF86060204600F0E4
:100EC0001BF8A060204600F017F800220421E06023
:100ED0006068FFF781FF01220921A068FFF77CFF0E
:100EE00002221221E068FFF777FF0123A361D1E717
:100EF000FC130008210E0008F8B50746FFF7ACFF09
:100F00001E4B1E68B36913B93046FFF7BDFF483664
:100F1000D6E90134013B03D533680BB33668F7E7F4
:100F2000B4F90C50D5B9164B04F15800E36065666E
:100F300000F047F8FFF796FF08222946C4E901555B
:100F4000C4E904552560A56104F15C00FFF748FD84
:100F5000C4E90D55C4E912552046F8BD6834D9E7F7
:100F600004213846FFF762FF044630600028D5D1DF
:100F7000FFF778FF0C233B60EEE700BFFC1300088F
:100F80000100FFFF2DE9F84306468846002700F1DF
:100F90004804D4E90195B9F1010905D52468002C6C
:100FA000F7D13846BDE8F883AB89012B07D9B5F9ED
:100FB0000E30013303D029463046C0470743683519
:100FC000E9E770477047704770B50E46B1F90E10EB
:100FD000144600291D4696B008DA0022B6F90C30F6
:100FE0002A601A0610D44FF480630EE06A4600F0BF
:100FF00091F90028F1DB019A02F47042A2F5005346
:101000005A425A412A60EEE740230020236016B07E
:1010100070BD00008B8973B59D0706460C4607D549
:1010200004F14703236023610123636102B070BDB3
:101030006A4601ABFFF7C8FF00990546304600F04D
:1010400091F848B9B4F90C309A05EFD423F00303B2
:1010500043F00203A381E3E70D4BB362A389206051
:1010600043F08003A381009B20616361019B5BB11E
:101070003046B4F90E1000F05FF928B1A38923F0CF
:10108000030343F00103A381A0890543A581CDE7B4
:10109000210E000838B50546002940D051F8043C1F
:1010A0000C1F002BB8BFE41800F068F91C4A136845
:1010B00033B9636014602846BDE8384000F064B975
:1010C000A34208D9206821188B4201BF19685B68C8
:1010D00009182160EDE71A465B680BB1A342FAD903
:1010E00011685018A0420BD1206801445018834267
:1010F0001160E0D118685B68014411605360DAE761
:1011000002D90C232B60D6E7206821188B4201BF3F
:1011100019685B680918216063605460CBE738BDCB
:101120004005002070B50E4E0C463168054611B9D9
:1011300000F08CF830602146284600F087F8431C08
:101140000AD0C41C24F00304A04207D0211A284668
:1011500000F07CF8013001D14FF0FF34204670BD23
:10116000440500202DE9F041CD1C25F0030508358C
:101170000C2D38BF0C25002D074601DBA94205D9EF
:101180000C2300263B603046BDE8F0812E4E00F077
:10119000F5F833681C4634BB29463846FFF7C2FFD2
:1011A000431C04464DD134682646002E40D12368A6
:1011B0003146384604EB030800F048F880453AD140
:1011C000216803356D1A25F0030508350C2D38BF4D
:1011D0000C2538462946FFF7A5FF01302BD02368A0
:1011E0002B4423600EE02268521B1ED40B2A16D912
:1011F0006119A342256018BF5960636808BF316058
:1012000062514B60384604F10B0600F0BDF826F041
:101210000706231DF21AB6D09B1BA350B3E76268E2
:10122000A3420CBF32605A60ECE723466468B2E721
:1012300034467668B9E70C2338463B6000F0A4F8E2
:10124000A1E72560DEE700BF4005002038B5002398
:10125000054D044608462B60FFF72AFB431C02D1CC
:101260002B6803B1236038BD4805002010B50C463B
:10127000B1F90E1000F08EF80028ABBF636DA389A2
:101280001B1823F48053ACBF6365A38110BD2DE907
:10129000F0411F468B890546DB050C46164605D5F1
:1012A00002230022B1F90E1000F056F8A38932464D
:1012B00023F48053A38128463B46B4F90E10BDE8C1
:1012C000F041FFF7E1B810B50C46B1F90E1000F08F
:1012D00043F8431CA38915BF606523F4805343F48E
:1012E0008053A38118BFA38110BDB1F90E1000F087
:1012F00001B8000038B50023054D044608462B60B0
:10130000FFF7A5FA431C02D12B6803B1236038BD57
:101310004805002038B50023064D0446084611460E
:101320002B60FFF79FFA431C02D12B6803B12360A7
:1013300038BD00BF4805002038B50023054D0446E0
:1013400008462B60FFF79DFA431C02D12B6803B1BE
:10135000236038BD4805002038B5044608461146CC
:101360000022054D2A601A46FFF795FA431C02D168
:101370002B6803B1236038BD480500200148FFF702
:1013800021BE00BF3C0500200148FFF71CBE00BF86
:101390003C05002038B50446084611460022054D9C
:1013A0002A601A46FFF736FA431C02D12B6803B1B4
:1013B000236038BD48050020F8B500BFF8BC08BC64
:1013C0009E467047F8B500BFF8BC08BC9E46704703
:1013D0005465726D696E616C0000000048656C6C4C
:1013E0006F20576F726C64000000000000005454BE
:1013F000522052454747455300000000040000209A
:1014000000000000000000000000000000000000DC
:1014100000000000000000000000000000000000CC
:1014200000000000000000000000000000000000BC
:1014300000000000000000000000000000000000AC
:10144000000000000000000000000000000000009C
:10145000000000000000000000000000000000008C
:04146000550100082A
:04146400310100084A
:1014680004000020000000002014000840140008B8
:101478000014000800000000000000000000000048
:101488000000000000000000000000000000000054
:101498000000000000000000000000000000000044
:1014A8000000000000000000000000000000000034
:1014B8000000000000000000000000000000000024
:0414C8000000000020
:040000050800091DC9
:00000001FF
