:020000040800F2
:1000000000500020310F0008810F0008810F000808
:10001000810F0008810F0008810F00080000000018
:10002000000000000000000000000000810F000838
:10003000810F000800000000810F0008810F0008F8
:10004000810F0008810F0008810F0008810F000850
:10005000810F0008810F0008810F0008810F000840
:10006000810F0008810F0008810F0008810F000830
:10007000810F0008810F0008810F0008810F000820
:10008000810F0008810F0008810F0008810F000810
:10009000810F0008810F0008810F0008810F000800
:1000A000810F0008810F0008810F0008810F0008F0
:1000B000810F0008810F0008810F0008810F0008E0
:1000C000810F0008810F0008810F0008810F0008D0
:1000D000810F0008810F0008810F0008810F0008C0
:1000E000810F0008810F000800000000810F000848
:1000F000810F0008810F0008810F0008810F0008A0
:10010000810F0008810F0008810F0008810F00088F
:10011000810F0008810F0008810F0008810F00087F
:10012000810F0008810F0008810F0008810F00086F
:1001300010B5054C237833B9044B13B10448AFF321
:1001400000800123237010BD00000020000000008B
:10015000E80F000808B5034B1BB103490348AFF390
:10016000008008BD0000000004000020E80F000827
:1001700080B483B000AF234B3B603B6803221A611D
:100180003B6803225A613B681F4A9A613B681F4AD9
:10019000DA613B684FF480621A623B6800229A621F
:1001A0003B6800225A623B680022DA623B68164ACA
:1001B0001A663B68164A5A663B6810229A663B6884
:1001C00000221A673B680022DA663B6800225A6701
:1001D00000237B600CE07B68C3F10F030D4AD15C08
:1001E0003A687B6813440A461A707B6801337B6067
:1001F0007B680F2BEFD900BF00BF0C37BD4680BC1A
:10020000704700BF1C00002000100008C400002040
:10021000C40400202410000880B58AB000AFF86044
:10022000B9607A6000233B62FB68DB68FB61FB68B6
:100230001B69BB61BA69FB699A4205D9BA69FB6956
:10024000D31A013B7B6207E0FB689A68B969FB69D6
:10025000CB1A1344013B7B62FB689A68FB69D31A93
:100260007A6A934228BF13467B627A6A7B6893421C
:1002700028BF13467B62FB685A68FB6913447B61A5
:100280007A6AB968786900F0A1FE3A6A7B6A134419
:100290003B62BA687B6A1344BB607A687B6AD31A94
:1002A0007B60FA697B6A1344FB61FB689B68FA69AF
:1002B0009A4201D10023FB61FB68FA69DA607B682E
:1002C000002BB4D13B6A18462837BD4680BD80B5A7
:1002D00088B000AFF860B9607A60FB68DB68FB61EA
:1002E000FB689A68FB69D31ABB61BA697B689A425A
:1002F0000FD9FB685A68FB6913443B617A68B96897
:10030000386900F063FEFA697B681A44FB68DA60BA
:100310001DE0BB697B61FB685A68FB6913443B6164
:100320007A69B968386900F051FE7A68BB69D31AF6
:100330007B61FB685B683B61BA68BB6913447A699F
:100340001946386900F042FEFB687A69DA6000BF3E
:100350002037BD4680BD80B487B000AF78607B6831
:100360001B693B617B68DB68FB603A69FB689A420A
:1003700008D87B689A68FB68D21A3B691344013B32
:100380007B6104E03A69FB68D31A013B7B617B69BE
:1003900018461C37BD4680BC7047000080B588B049
:1003A00000AFF860B9607A60BB68BB61FB685A1C3B
:1003B00013465B001344DB001F4A13447B617B69D7
:1003C0005B69022B29D0022B2ED8002B02D0012BE7
:1003D00013D029E07869FFF7BEFF38613A697B687E
:1003E0009A4202D20023FB6121E07B68FB617A68BC
:1003F000B9697869FFF76BFF19E07869FFF7ABFF20
:1004000038617A683B69934228BF1346FB61FA69F9
:10041000B9697869FFF75BFF09E07A68B9697869BB
:10042000FFF7FAFEF86102E00023FB6100BFFB6901
:1004300018462037BD4680BD1C00002080B588B01E
:1004400000AFF860B9607A600E4BFB61FB691B7806
:10045000DBB2002B01D1FFF78BFEEFF311834FF0DE
:10046000200181F31188BB617A68B968F868FFF7E9
:1004700095FF7861BB6983F311887B691846203743
:10048000BD4680BD1C00002080B58AB000AFF8607A
:10049000B9607A603B60204B3B623B6A1B78DBB201
:1004A000002B01D1FFF764FE1B4BFB61FB68022BA5
:1004B0002AD8EFF311834FF0200181F31188BB613B
:1004C000FB685A1C13465B001344DB00FA691344B3
:1004D0007B61FB68002B0ED07B69BA681A607B6970
:1004E0007A685A607B693A689A607B6900221A616F
:1004F0007B690022DA607B693A6B5A61BB6983F3DE
:10050000118800237B6202E04FF0FF337B627B6A3D
:1005100018462837BD4680BD1C00002080B584B039
:1005200000AF78600B46FB707B689B68FB60FB68E4
:100530005A1C7B685B689A420ED87B681A68FB6815
:100540001344FA781A70FB685A1C7B689A607B68BF
:10055000DB685A1C7B68DA607B689A687B685B683A
:100560009A4215D17B6818697B6819687B689B681B
:100570001A46FFF763FF02467B689B689A4204D0E5
:100580007B684FF0FF32DA6002E07B6800229A60FD
:1005900000BF1037BD4680BD80B58AB000AFF8609F
:1005A000B9607A603B60BB683B6201237B620123D8
:1005B000FB6107E03A6A7B68B2FBF3F33B62FB69DD
:1005C0000133FB613A6A7B689A42F3D23A68FB696D
:1005D0009A4201D93B68FB617B6B03F00103002B5E
:1005E00025D13B6B002B22D07B6B03F00203002B49
:1005F00005D03B68002B02D13023FB7601E020239D
:10060000FB760BE03B6B013B3B63FB7E1946F868D6
:10061000FFF784FFFB68DB68002B07DB3B6B002BDD
:1006200005D0FA693B6B9A42ECD300E000BFFB684F
:10063000DB68002B55DB3B68012B03D93B68013B92
:100640003B6009E0BA687B6AB2FBF3F37B617A69CD
:100650007B689A4200D205E07B6A7A6802FB03F36A
:100660007B62E8E7BA687B6AB2FBF3F37B617B6984
:100670007A6A02FB03F3BA68D31ABB601B4A7B6930
:1006800013441B781946F868FFF748FFFB68DB68DE
:10069000002B08DB7A6A7B68B2FBF3F37B627B6A30
:1006A000002BDFD100E000BF7B6B03F00103002BC8
:1006B00017D03B6B002B14D00AE03B6B013B3B6334
:1006C0002021F868FFF72AFFFB68DB68002B07DBB7
:1006D0003B6B002B05D0FA693B6B9A42EDD300E0EF
:1006E00000BF00BF2837BD4680BD00BF38100008DE
:1006F00080B588B002AFF860B9607A603B60BB68D3
:10070000002BB8BF5B423B6101237B6107E07B6844
:100710003A6992FBF3F33B617B6901337B617B6850
:100720003A699A42F3DA3A687B699A4201D93B689E
:100730007B613B6A002B0AD0BB68002B04DB7B6A21
:1007400003F00403002B02D03B6A013B3B627B6A4F
:1007500003F00203002B02D03B68002B1CD07B6A05
:1007600003F00103002B17D13B6A002B14D00AE0E1
:100770003B6A013B3B622021F868FFF7CFFEFB6834
:10078000DB68002B07DB3B6A002B05D07A693B6AEC
:100790009A42EDD300E000BFFB68DB68002B4ADB28
:1007A000BB68002B07DABB685B42BB602D21F86891
:1007B000FFF7B4FE08E07B6A03F00403002B03D0CC
:1007C0002B21F868FFF7AAFEFB68DB68002B32DB01
:1007D0007B6A03F00203002B1FD07B6A03F0010346
:1007E000002B1AD13B68002B17D13B6A002B14D089
:1007F0000AE03B6A013B3B623021F868FFF78EFE5E
:10080000FB68DB68002B07DB3B6A002B05D07A69AD
:100810003B6A9A42EDD300E000BFFB68DB68002B27
:1008200009DBB9687B6A01933B6A00933B687A688D
:10083000F868FFF7B1FE00BF1837BD4680BD000065
:1008400080B5A2B002AFF860B9607A6007F110031A
:100850003B6540237B650023BB65FB683B6600234B
:10086000FB65BB681B7887F87F30BB680133BB60D2
:1008700097F87F30002B00F09F8197F87F30252B71
:1008800040F08D8100233B670123BB67BB681B7869
:1008900087F87F3097F87F30233B0D2B3ED801A29D
:1008A00052F823F00D0900081D0900081D09000871
:1008B0001D0900081D0900081D0900081D09000880
:1008C0001D090008FD0800081D090008DD080008D2
:1008D0001D0900081D090008ED0800083B6F43F0E2
:1008E00001033B67BB680133BB601AE03B6F43F019
:1008F00002033B67BB680133BB6012E03B6F43F010
:1009000004033B67BB680133BB600AE03B6F43F005
:1009100008033B67BB680133BB6002E00023BB6791
:1009200000BFBB6F002BB1D10023FB66BB681B78F7
:1009300087F87F3097F87F302F2B12D997F87F30C8
:10094000392B0ED8BB680133BB60FA6E13469B008F
:1009500013445B001A4697F87F301344303BFB6624
:10096000E4E700237B67BB681B7887F87F3097F844
:100970007F302E2B1DD1BB680133BB60BB681B7859
:1009800087F87F3097F87F302F2B12D997F87F3078
:10099000392B0ED8BB680133BB607A6F13469B00BE
:1009A00013445B001A4697F87F301344303B7B6753
:1009B000E4E7BB681B7887F87F3097F87F306C2BB3
:1009C00003D097F87F30682B07D1BB680133BB6039
:1009D000BB681B7887F87F30EFE797F87F30252BCF
:1009E00000F0D180252BC0F2D580782B00F3D28087
:1009F000582BC0F2CF80583B202B00F2CB8001A2B5
:100A000052F823F0FB0A0008950B0008950B00082C
:100A1000950B0008950B0008950B0008950B000836
:100A2000950B0008950B0008950B0008950B000826
:100A3000890A0008AF0A0008950B0008950B00080A
:100A4000950B0008950B0008950B0008950B000806
:100A5000950B0008950B0008950B0008950B0008F6
:100A6000950B0008610B0008950B0008950B00081A
:100A7000210B0008950B0008D50A0008950B00080B
:100A8000950B0008FB0A00087B681B68191D7A6833
:100A900011601B68BB67BB6F87F8673097F86720EA
:100AA00007F1500311461846FFF738FD73E07B68E5
:100AB0001B68191D7A6811601B68BB6707F150003D
:100AC0003B6F0193FB6E00937B6F0A22B96FFFF7B8
:100AD0000FFE60E07B681B68191D7A6811601B6857
:100AE000BB67B96F07F150003B6F0193FB6E00933A
:100AF0007B6F0A22FFF750FD4DE07B681B68191DD4
:100B00007A6811601B68BB67B96F07F150003B6FD3
:100B10000193FB6E00937B6F1022FFF73DFD3AE0DF
:100B20007B681B68191D7A6811601B68BB66BB6E09
:100B30001B7887F87F30BB6E0133BB6697F87F3038
:100B4000002B0BD097F87F2007F150031146184671
:100B5000FFF7E4FCFB6D002BE9DA1CE000BF1AE0B4
:100B60007B681B68191D7A6811601B68BB67B96FC9
:100B700007F150000023019308230093082310225B
:100B8000FFF70AFD07E007F1500325211846FFF79C
:100B9000C5FC00E000BFBB680133BB6007E097F80D
:100BA0007F2007F1500311461846FFF7B7FCFB6D95
:100BB000002BBFF656AE00E000BFFB6D002B0DDD35
:100BC000BB6D002B06D0BA6D07F110031946F8680B
:100BD000FFF734FCFB6DBA6D1344FB65FB6D1846E3
:100BE0008037BD4680BD00BF0EB480B585B000AF74
:100BF000786007F12003BB6007F108031A46F96922
:100C00007868FFF71DFEF860FB6818461437BD468C
:100C1000BDE8804003B0704780B485B000AF786015
:100C20000023FB607B689B799B00DAB27B685B7971
:100C30001344FB727B681B79072B1ED8FA7A7B68FA
:100C40001B799B0002FA03F3FB607B681B681A6840
:100C50007B681B799B000F2101FA03F3DB431946E4
:100C60007B681B680A401A607B681B6819687B6890
:100C70001B68FA680A431A601FE0FA7A7B681B79DE
:100C8000083B9B0002FA03F3FB607B681B685A6811
:100C90007B681B79083B9B000F2101FA03F3DB43C0
:100CA00019467B681B680A405A607B681B68596854
:100CB0007B681B68FA680A435A600023FB6000BF28
:100CC0001437BD4680BC704780B485B000AF7860F3
:100CD0000B46FB707B689A68FB7822FA03F39BB2A1
:100CE00003F00103FB81FB8918461437BD4680BC25
:100CF0007047000080B483B000AF78600B46FB7093
:100D0000FB78002B4CD07B684E4A934206D14E4B69
:100D10009B694D4A43F0040393618DE07B684B4A25
:100D2000934206D1484B9B69474A43F008039361BD
:100D300082E07B68464A934206D1434B9B69424A14
:100D400043F01003936177E07B68424A934206D1F7
:100D50003D4B9B693C4A43F0200393616CE07B6808
:100D60003D4A934206D1384B9B69374A43F04003D2
:100D7000936161E07B68394A934206D1324B9B69AB
:100D8000314A43F08003936156E07B68344A9342D2
:100D900052D12D4B9B692C4A43F4807393614BE0F5
:100DA0007B68284A934206D1274B9B69264A23F049
:100DB0000403936140E07B68244A934206D1224BAE
:100DC0009B69214A23F00803936135E07B68204A40
:100DD000934206D11C4B9B691B4A23F0100393617D
:100DE0002AE07B681B4A934206D1174B9B69164A3F
:100DF00023F0200393611FE07B68174A934206D1DA
:100E0000114B9B69104A23F04003936114E07B6807
:100E1000124A934206D10C4B9B690B4A23F0800384
:100E2000936109E07B680E4A934205D1064B9B69AA
:100E3000054A23F48073936100BF0C37BD4680BC24
:100E4000704700BF0008014000100240000C014044
:100E5000001001400014014000180140001C014036
:100E60000020014080B485B000AF78600023FB60B3
:100E700002E0FB680133FB607B684FF4FA7202FB0F
:100E800003F3FA689A42F4D300BF00BF1437BD469B
:100E900080BC704780B588B002AF00230093002368
:100EA000002200210020FFF7EFFA1D4BFB600D230D
:100EB0003B7401237B740123BB7401211848FFF7A5
:100EC00019FF07F10C031846FFF7A6FE154B7B60D0
:100ED0000A233B7200237B720223BB72114BDB6837
:100EE000104A43F48063D36001210E48FFF702FFEC
:100EF0003B1D1846FFF790FE0B490020FFF774FEDC
:100F00000A210848FFF7E0FE0346FB82FB8A1A46E7
:100F100006490020FFF768FE3220FFF7A3FFEFE746
:100F200000100140000C01400C1000081C100008CB
:100F30000D488546AFF300800C480D490D4A00234B
:100F400002E0D458C4500433C4188C42F9D30A4A7E
:100F50000A4C002301E013600432A242FBD300F0EC
:100F600011F8FFF797FFFEE7005000200000002077
:100F7000000000205010000800000020D4040020D1
:100F8000FEE7000070B500260C4D0D4C641BA4104C
:100F9000A64209D100F028F800260A4D0A4C641B2D
:100FA000A410A64205D170BD55F8043B9847013600
:100FB000EEE755F8043B98470136F2E74810000881
:100FC00048100008481000084C1000080A449142DC
:100FD00000F1FF3300D1704710B511F8014B914279
:100FE00003F8014FF9D110BDF8B500BFF8BC08BC3B
:100FF0009E467047F8B500BFF8BC08BC9E467047D7
:101000005465726D696E616C0000000048656C6C1F
:101010006F20776F726C64200A0000002558200A48
:10102000000000000000000000005454522052450F
:1010300047474553000000003031323334353637EE
:081040003839414243444546A2
:041048005501000846
:04104C003101000866
:0400000508000F31AF
:00000001FF
